:0400000085EF00F098
:10000800B10FB10FB10FB10FB10FB10FB10FB10FE8
:10001800B10FB10FB10FB10FB10FB10FB10FB10FD8
:10002800B10FB10FB10FB10FB10FB10FB10FB10FC8
:10003800B10FB10FB10FB10FB10FB10FB10FB10FB8
:10004800B10FB10FB10FB10FB10FB10FB10FB10FA8
:10005800B10FB10FB10FB10FB10FB10FB10FB10F98
:10006800B10FB10FB10FB10FB10FB10FB10FB10F88
:10007800B10FB10FB10FB10F4200B10FB10FB10FF6
:10008800B10FB10FB10FB10FB10FB10FB10FB10F68
:10009800B10FB10FB10FB10F4200B10FB10FB10FD6
:1000A800B10FB10FB10FB10FB10FB10FB10FB10F48
:1000B800B10FB10FB10FB10FB10FB10FB10FB10F38
:1000C800B10FB10FB10FB10FB10FB10FB10FB10F28
:1000D800B10FB10FB10FB10FB10FB10FB10FB10F18
:1000E8004200B10FB10FB10FB10FB10FB10FB10F86
:1000F800B10FB10FB10FB10FB10FB10FB10FB10FF8
:10010800FF00BBEF0EF020EE02F03550D926365036
:10011800DA22DE50DE10D8A494EF00F096EF00F05B
:1001280098EF00F025EF01F020EE04F03550D926C5
:100138003650DA22DE50DE10D8B4A5EF00F0A7EF73
:1001480000F0DFEF00F039503A10D8B4AEEF00F00D
:10015800B0EF00F0C6EF00F037C53BF5010E3C6E7E
:100168003B2AB9EF00F0D8903C363B2EB7EF00F0B1
:1001780020EE0CF03550D9263650DA223C50DF12EA
:1001880025EF01F037C53BF5010E3C6E3B2ACFEF5A
:1001980000F0D8903C363B2ECDEF00F03C50FF0AE3
:1001A8003D6E20EE0CF03550D9263650DA223D50FF
:1001B800DF1625EF01F039503A10D8B4E6EF00F019
:1001C800E8EF00F0FEEF00F037C53BF5010E3C6E9E
:1001D8003B2AF1EF00F0D8903C363B2EEFEF00F0D1
:1001E80020EE0AF03550D9263650DA223C50DF127C
:1001F80015EF01F037C53BF5010E3C6E3B2A07EFC2
:1002080001F0D8903C363B2E05EF01F03C50FF0A38
:100218003D6E20EE0AF03550D9263650DA223D5090
:10022800DF1635C52BF536C52CF50A0E2D6E20EEDA
:100238000AF03550D9263650DA22DF502E6EC7EC38
:100248001CF0120008C50FF509C510F50AC511F50F
:100258000BC512F50C06D8A00D060C2806E10D28D2
:10026800D8A439EF01F03BEF01F048EF01F0000EA0
:10027800096E000E086EBBEF01F00F4A102A114AF2
:10028800122A0C06D8A00D060FC5F6F410C5F7F40F
:10029800000EF86E3F0EF76403D00800F55005D045
:1002A800F6C4E9F4F7C4EAF4EF500009D8B45FEFF4
:1002B80001F061EF01F09CEF01F011C5F6F412C5F1
:1002C800F7F4000EF86E0800F5500009D8B46FEF87
:1002D80001F071EF01F09CEF01F00C500D10D8B453
:1002E80078EF01F07AEF01F09CEF01F011C5F6F418
:1002F80012C5F7F4000EF86E0800F5C40EF50FC528
:10030800F6F410C5F7F4000EF86E3F0EF76403D04C
:100318000800F55005D0F6C4E9F4F7C4EAF4EF5044
:100328000E18D8B49AEF01F09CEF01F041EF01F0FC
:100338000FC5F6F410C5F7F4000EF86E3F0EF7641B
:1003480003D00800F55005D0F6C4E9F4F7C4EAF480
:10035800EF500E6E11C5F6F412C5F7F4000EF86EE4
:100368000800F5500E5C086E096AD8A0090612004C
:100378000AC510F50BC511F50C5010240E6E0D5062
:1003880011200F6EC08041EF02F0000E126EC08285
:10039800D0B4D1EF01F0D4EF01F0010ED5EF01F0A8
:1003A800000E1212C092D8901236C082D0B4DFEF7D
:1003B80001F0E2EF01F0010EE3EF01F0000E12127E
:1003C800C092D8901236C082D0B4EDEF01F0F0EFB1
:1003D80001F0010EF1EF01F0000E1212C092D89058
:1003E8001236C082D0B4FBEF01F0FEEF01F0010E2F
:1003F800FFEF01F0000E1212C092D8901236C082A0
:10040800D0B409EF02F00CEF02F0010E0DEF02F08C
:10041800000E1212C092D8901236C082D0B417EFD4
:1004280002F01AEF02F0010E1BEF02F0000E12129A
:10043800C092D8901236C082D0B425EF02F028EFCF
:1004480002F0010E29EF02F0000E1212C092D890AD
:100458001236C082D0B433EF02F036EF02F0010E4C
:1004680037EF02F0000E1212C09210C5D9F411C570
:10047800DAF412C5DFF4104A112A0E50105C0F503E
:100488001158D8A04AEF02F04CEF02F0C9EF01F082
:1004980012000AC510F50BC511F50C5010240E6E8C
:1004A8000D5011200F6EC086D2EF02F0000E126EB2
:1004B800C088D0BA62EF02F065EF02F0010E66EF75
:1004C80002F0000E1212C098D8901236C088D0BA26
:1004D80070EF02F073EF02F0010E74EF02F0000EFD
:1004E8001212C098D8901236C088D0BA7EEF02F0A7
:1004F80081EF02F0010E82EF02F0000E1212C09896
:10050800D8901236C088D0BA8CEF02F08FEF02F084
:10051800010E90EF02F0000E1212C098D890123619
:10052800C088D0BA9AEF02F09DEF02F0010E9EEF5C
:1005380002F0000E1212C098D8901236C088D0BAB5
:10054800A8EF02F0ABEF02F0010EACEF02F0000EE4
:100558001212C098D8901236C088D0BAB6EF02F0FE
:10056800B9EF02F0010EBAEF02F0000E1212C098B5
:10057800D8901236C088D0BAC4EF02F0C7EF02F0A4
:10058800010EC8EF02F0000E1212C09810C5D9F47F
:1005980011C5DAF412C5DFF4104A112A0E50105CA6
:1005A8000F501158D8A0DBEF02F0DDEF02F05AEF40
:1005B80002F012000501D251D311D8B4E6EF02F0CF
:1005C800E8EF02F0F4EF02F0D2C5D9F4D3C5DAF4BB
:1005D800EF0EDE6EBE0EDE6EAD0EDE6EDE0EDD6E74
:1005E800CD5107E1100ECC5DD8B0FDEF02F0FFEF62
:1005F80002F01CEF03F0BC0ED46F080ED56F020E8C
:10060800D427000ED523D890CC35D96ECD35DA6EE7
:10061800D890D936DA36D451D926D551DA22DE50D7
:10062800DE10D8A41AEF03F01CEF03F02BEF03F051
:10063800C00EB46FF50EB56FCCC5B6F5CDC5B7F520
:1006480071EC23F00501CC69CD696BEF03F0D25151
:10065800D311D8B432EF03F034EF03F067EF03F0AF
:10066800BC0ED46F080ED56FD890CC35D96ECD3569
:10067800DA6ED890D936DA36D451D926D551DA225D
:10068800DEC408F5DDC409F5CEC50AF5CFC50BF5FE
:1006980085EC23F00501D0510826D1510922FF0E1F
:1006A8000824D66FFF0E0920D76FD86BD96BD2C537
:1006B800D9F4D3C5DAF4D6C5DEF4D7C5DEF4D8C587
:1006C800DEF4D9C5DEF4000ECD6F000ECC6F12003B
:1006D800000E116E0FBE75EF03F073EF03F07FEF9E
:1006E80003F00F1E0E1E0D1E0C6C000E0D220E22A6
:1006F8000F22010E116E0BBE86EF03F084EF03F09C
:1007080090EF03F00B1E0A1E091E086C000E09224A
:100718000A220B22010E111A000E126E000E136E21
:10072800000E146E000E156E0C500D100E100F10EA
:10073800D8B4A1EF03F0A3EF03F0D9EF03F0010E53
:10074800106EADEF03F0D8900C360D360E360F361E
:10075800102A0FAEB2EF03F0B4EF03F0A7EF03F0E7
:10076800D89012361336143615360C50085C0D50D6
:1007780009580E500A580F500B58D8A0C6EF03F06E
:10078800C8EF03F0D1EF03F00C50085E0D50095A82
:100798000E500A5A0F500B5A1280D8900F320E3250
:1007A8000D320C32102EB4EF03F01150D8B4DFEF35
:1007B80003F0E1EF03F0E9EF03F0151E141E131E1A
:1007C800126C000E13221422152212C508F513C547
:1007D80009F514C50AF515C50BF51200000E04013C
:1007E800186F1969C968000E086F0969C768000E93
:1007F800106F1169C86800910181C6800093018358
:10080800C682009B018BC68A189D198DC98C189FBA
:10081800C18EC99E010E0201616F000E626F1E0E2D
:10082800636F050E656F010E056F020E036F030EF1
:10083800206F000E0001D56F000ED86F020ED96F21
:10084800040EDA6F7F0EDB6F010EDC6F080EDD6FB2
:10085800100EDE6F400EDF6F800ED76F820ED66FE0
:10086800010ED56F000ED86F020ED96F040EDA6F25
:100878007F0EDB6F010EDC6F080EDD6F200EDE6F62
:10088800400EDF6F800ED76F820ED66F020ED56FC7
:10089800010ED86F7F0ED96F7F0EDA6F7F0EDB6F78
:1008A800010EDC6F000EDD6F000EDE6F000EDF6FD5
:1008B800820ED76F8C0ED66F000ED46FB59A550E78
:1008C8000401596FAA0E596F5991080E5D6F000EF9
:1008D8005E6F000E5F6F550E596FAA0E596F5981E2
:1008E800C280C28212000A340B34116E1150D8A48F
:1008F80080EF04F082EF04F08CEF04F0000E086E35
:10090800000E096E000E0A6E000E0B6EF9EF04F071
:1009180008C50CF509C50DF50AC50EF50BC50FF58B
:10092800200E9CEF04F0D8900F320E320D320C32AC
:10093800E82E97EF04F00C50106E0A8EFF0E081682
:10094800FF0E0916FF0E0A16000E0B16960E115E04
:1009580011BEB3EF04F0B1EF04F0C9EF04F0115089
:10096800800A970FD8B0BBEF04F0BDEF04F0BFEFDB
:1009780004F082EF04F0D8900B320A3209320832C0
:10098800113EBFEF04F0E1EF04F01F0E1164CFEF4A
:1009980004F0D1EF04F0D9EF04F082EF04F0D8901E
:1009A800083609360A360B3611061150D8A4DFEF7F
:1009B80004F0E1EF04F0D3EF04F01050D8B4E7EFFF
:1009C80004F0E9EF04F0F1EF04F00B1E0A1E091E13
:1009D800086C000E09220A220B2208C508F509C571
:1009E80009F50AC50AF50BC50BF51200000E21140E
:1009F800296E000E22142A6E800E23142B6E7F0E91
:100A080024142C6E29502A102B102C10D8A40FEF68
:100A180005F011EF05F019EF05F0000E216E000E3C
:100A2800226E000E236E000E246E000E2514296E11
:100A3800000E26142A6E800E27142B6E7F0E2814A3
:100A48002C6E29502A102B102C10D8A42EEF05F04C
:100A580030EF05F038EF05F0000E256E000E266E1B
:100A6800000E276E000E286E24AE3DEF05F03FEF16
:100A780005F048EF05F0216C221ED8B0222A231E6B
:100A8800D8B0232A800E245628AE4DEF05F04FEF3C
:100A980005F058EF05F0256C261ED8B0262A271E2B
:100AA800D8B0272A800E2856000E211A000E221AC6
:100AB800000E231A800E241A000E251A000E261A7C
:100AC800000E271A800E281A2550215C265022581D
:100AD8002750235828502458D8B075EF05F077EFE1
:100AE80005F07AEF05F0D8907BEF05F0D88012007A
:100AF800090E0501D66FCC51CD11D8B486EF05F09B
:100B080088EF05F0DDEF05F0CCC5D9F4CDC5DAF4F2
:100B1800DE50DE10D8B493EF05F095EF05F0DDEF69
:100B280005F0CCC5D9F4CDC5DAF4DEC4D0F5DDC402
:100B3800D1F5D0C5D9F4D1C5DAF4DF50D8B4A7EFD0
:100B480005F0A9EF05F0DDEF05F0CCC5D9F4CDC56A
:100B5800DAF410EE06F0DE50E126DD50E22220EE57
:100B680002F0CC51D926CD51DA22E650DE1807E141
:100B7800E650DE18D8A4C3EF05F0C5EF05F0DDEFA9
:100B880005F0CCC5D9F4CDC5DAF410EE01F0DE508D
:100B9800E126DD50E222E750B2EC18F00501D06FF3
:100BA800D0B1D9EF05F0DBEF05F0DDEF05F0000E71
:100BB800D66FD651D8B4E3EF05F0E5EF05F0EBEFCB
:100BC80005F0000ED46F000ED56FF3EF05F0CCC51D
:100BD800D9F4CDC5DAF4DEC4D4F5DDC4D5F5CEC577
:100BE800D9F4CFC5DAF4D4C5DEF4D5C5DDF4D651D1
:100BF8001200000E096E000E086EEBEC23F008C51B
:100C08000CF509C50DF50CC508F50DC509F5EBEC96
:100C180023F00CB012EF06F015EF06F0010E16EFF8
:100C280006F0000E07017C6F0CB21DEF06F020EFF6
:100C380006F0010E21EF06F0000E7D6F0CB427EFD1
:100C480006F02AEF06F0010E2BEF06F0000E7E6F7D
:100C58000CB631EF06F034EF06F0010E35EF06F072
:100C6800000E7F6F000E096E000E086EF8EC23F080
:100C780008C50CF509C50DF50CC508F50DC509F530
:100C8800F8EC23F00CB04BEF06F04EEF06F0010E37
:100C98004FEF06F0000E0701806F0CB256EF06F01A
:100CA80059EF06F0010E5AEF06F0000E816F0CB4F2
:100CB80060EF06F063EF06F0010E64EF06F0000E39
:100CC800826F0CB66AEF06F06DEF06F0010E6EEF5C
:100CD80006F0000E836F040143510701846F04017D
:100CE80044510701856F040145510701866F876BE1
:100CF80012000AC510F50BC511F50C5010240E6E24
:100D08000D5011200F6EF1EF06F010C5D9F411C582
:100D1800DAF4DF50126E104A112A12BE96EF06F06E
:100D280099EF06F0C0809AEF06F0C090C08200F0FC
:100D3800C09212BCA2EF06F0A5EF06F0C080A6EFA5
:100D480006F0C090C08200F0C09212BAAEEF06F072
:100D5800B1EF06F0C080B2EF06F0C090C08200F09C
:100D6800C09212B8BAEF06F0BDEF06F0C080BEEF31
:100D780006F0C090C08200F0C09212B6C6EF06F02E
:100D8800C9EF06F0C080CAEF06F0C090C08200F03C
:100D9800C09212B4D2EF06F0D5EF06F0C080D6EFBD
:100DA80006F0C090C08200F0C09212B2DEEF06F0EA
:100DB800E1EF06F0C080E2EF06F0C090C08200F0DC
:100DC800C09212B0EAEF06F0EDEF06F0C080EEEF49
:100DD80006F0C090C08200F0C0920E50105C0F5018
:100DE8001158D8A0FAEF06F0FCEF06F089EF06F0EC
:100DF80012000AC510F50BC511F50C5010240E6E23
:100E08000D5011200F6E71EF07F010C5D9F411C500
:100E1800DAF4DF50126E104A112A12BE16EF07F0EC
:100E280019EF07F0C0861AEF07F0C096C08800F0E7
:100E3800C09812BC22EF07F025EF07F0C08626EF16
:100E480007F0C096C08800F0C09812BA2EEF07F0DD
:100E580031EF07F0C08632EF07F0C096C08800F087
:100E6800C09812B83AEF07F03DEF07F0C0863EEFA2
:100E780007F0C096C08800F0C09812B646EF07F099
:100E880049EF07F0C0864AEF07F0C096C08800F027
:100E9800C09812B452EF07F055EF07F0C08656EF2E
:100EA80007F0C096C08800F0C09812B25EEF07F055
:100EB80061EF07F0C08662EF07F0C096C08800F0C7
:100EC800C09812B06AEF07F06DEF07F0C0866EEFBA
:100ED80007F0C096C08800F0C0980E50105C0F5004
:100EE8001158D8A07AEF07F07CEF07F009EF07F068
:100EF80012000BC712F50CC713F50DC714F50EC772
:100F080015F508C512F509C513F50AC514F50BC57D
:100F180015F512C50CF513C50DF514C50EF515C557
:100F28000FF5180E9DEF07F0D8900F320E320D32E4
:100F38000C32E82E98EF07F00C50106E116A105022
:100F48001110D8A4AAEF07F0ACEF07F0CCEF07F028
:100F5800D89012340C6E13340D6E14340E6E153492
:100F68000F6E0C500D100E100F10D8A4BEEF07F026
:100F7800C0EF07F0C6EF07F0000E096E020E086E0C
:100F8800FBEF07F0000E096E030E086EFBEF07F08B
:100F980010281110D8A4D3EF07F0D5EF07F0F7EF1A
:100FA80007F012C50CF513C50DF514C50EF515C5DA
:100FB8000FF5090ED8900C360D360E360F36E82E82
:100FC800DEEF07F00C500D100E100F10D8B4EFEF35
:100FD80007F0F2EF07F0010EF3EF07F0000E086ECE
:100FE800096AFBEF07F0000E096E040E086E120086
:100FF800C0C6C4F6C1C6C5F6C40E086E060E096E94
:1010080036ECEFF008C5C8F609C5C9F60601C9BF30
:1010180012EF08F010EF08F015EF08F00B0E78EF5C
:1010280008F0D890C835D96EC935DA6E2B0ED92696
:10103800070EDA22DEC4C6F6DDC4C7F6C651C711EC
:10104800D8B429EF08F02BEF08F03BEF08F0D89060
:10105800C835D96EC935DA6E2B0ED926070EDA22B5
:10106800DE6ADD6AC6C6D9F4C7C6DAF4DF6ABE51DD
:10107800BF11D8B442EF08F044EF08F05EEF08F073
:1010880020EE01F0BE51D926BF51DA22C8C6DFF4DE
:10109800BEC6D9F4BFC6DAF4DF6AD890C835D96EAF
:1010A800C935DA6E2B0ED926070EDA22BEC6DEF453
:1010B800BFC6DDF4C251D8A464EF08F066EF08F0AB
:1010C80069EF08F0000E78EF08F0C00E906F060E7A
:1010D800916FBE0E926F060E936F000E946FB1EC77
:1010E80092F00601C36FC3511200000E0D6E000E80
:1010F8000C6E07017C51D8A484EF08F087EF08F044
:10110800010E88EF08F0000E0C127D51D8A48FEF65
:1011180008F091EF08F093EF08F094EF08F00C82D4
:101128007E51D8A49AEF08F09CEF08F09EEF08F0E3
:101138009FEF08F00C847F51D8A4A5EF08F0A7EF23
:1011480008F0A9EF08F0AAEF08F00C860CC508F51E
:101158000DC509F5EBEC23F0000E0D6E000E0C6EBC
:1011680007018051D8A4BBEF08F0BEEF08F0010ECC
:10117800BFEF08F0000E0C128151D8A4C6EF08F09A
:10118800C8EF08F0CAEF08F0CBEF08F00C828251E4
:10119800D8A4D1EF08F0D3EF08F0D5EF08F0D6EFD8
:1011A80008F00C848351D8A4DCEF08F0DEEF08F0D7
:1011B800E0EF08F0E1EF08F00C860CC508F50DC566
:1011C80009F5F8EC23F084C743F485C744F486C7CF
:1011D80045F484C743F485C744F486C745F4120030
:1011E800000E496E000E4A6E000E4B6E000E4C6EDD
:1011F800000E4D6E000E4E6E000E4F6E000E506EBD
:10120800498E41C545F542C546F543C547F544C530
:1012180048F5110E15EF09F0D8904832473246329A
:101228004532E82E10EF09F045A01DEF09F01FEF39
:1012380009F020EF09F04D8E498441C545F542C5B6
:1012480046F543C547F544C548F5120E31EF09F098
:10125800D8904832473246324532E82E2CEF09F012
:1012680045B039EF09F03BEF09F03CEF09F04D8448
:10127800498641C545F542C546F543C547F544C5C8
:1012880048F5130E4DEF09F0D890483247324632F0
:101298004532E82E48EF09F045A055EF09F057EF21
:1012A80009F058EF09F04D866F0E356E070E366E51
:1012B80049C537F54AC538F54BC539F54CC53AF532
:1012C8004DC53BF54EC53CF54FC53DF550C53EF502
:1012D8007DEC0DF0120035C5D9F436C5DAF437C502
:1012E800DEF438C5DDF420EE06F03550D926365048
:1012F800DA2239C5DEF43AC5DDF420EE08F03550BF
:10130800D9263650DA223BC5DFF420EE09F03550F5
:10131800D9263650DA22FF0EDF6E20EE0AF035505D
:10132800D9263650DA22DF6A37C508F538C509F5F7
:1013380059EC24F037C508F538C509F539C50AF55B
:101348003AC50BF5010E0C6E000E0D6E0FEC0DF08C
:1013580020EE04F03550D9263650DA22DE6ADD6AEE
:1013680035C52BF536C52CF5000E2D6E20EE09F08F
:101378003550D9263650DA22DF502E6EC7EC1CF0D5
:1013880035C52BF536C52CF50A0E2D6E20EE0AF064
:101398003550D9263650DA22DF502E6EC7EC1CF0B5
:1013A80035C508F536C509F5AB0E0A6EF10E0B6E9C
:1013B800FFECFFF020EE02F03550D9263650DA2245
:1013C800010EDE6E000EDD6E1200000E116E0BBEF9
:1013D800F2EF09F0F0EF09F0FCEF09F00B1E0A1E1E
:1013E800091E086C000E09220A220B22010E116E3A
:1013F8000FBE03EF0AF001EF0AF00BEF0AF00F1E21
:101408000E1E0D1E0C6C000E0D220E220F220C500B
:101418000D100E100F10D8B414EF0AF016EF0AF0E2
:1014280046EF0AF0010E106E20EF0AF0D8900C3645
:101438000D360E360F36102A0FAE25EF0AF027EFBD
:101448000AF01AEF0AF00C50085C0D5009580E50BB
:101458000A580F500B58D8A034EF0AF036EF0AF0AC
:101468003EEF0AF00C50085E0D50095A0E500A5A09
:101478000F500B5AD8900F320E320D320C32102EFC
:1014880027EF0AF01150D8B44CEF0AF04EEF0AF0EB
:1014980056EF0AF00B1E0A1E091E086C000E0922E0
:1014A8000A220B2208C508F509C509F50AC50AF577
:1014B8000BC50BF512006F0E3C6E070E3D6E780ED5
:1014C8003E6E080E3F6E000E416E000E406E000E1E
:1014D800426E1DECF9F03C503D10D8A476EF0AF0AE
:1014E80078EF0AF07FEF0AF0B70E0501B46FF00E3F
:1014F800B56F71EC23F06F0E356E070E366E000E69
:10150800386E000E376E000E3A6E010E396E87EC9B
:1015180000F06F0E356E070E366E000E386E000E38
:10152800376E000E3A6E000E396E47ECFFF06F0E04
:10153800356E070E366E000E386E010E376E000ED1
:101548003A6E010E396E87EC00F06F0E356E070E9D
:10155800366E000E386E010E376E000E3A6E000EB3
:10156800396E47ECFFF06F0E356E070E366E000EC3
:10157800386E040E376E000E3A6E010E396E87EC27
:1015880000F06F0E356E070E366E000E386E040EC4
:10159800376E000E3A6E000E396E47ECFFF01200FF
:1015A800000E0601CF6F000ECE6FCFBFE5EF0AF039
:1015B800CF5109E1140ECE5DD8A0E5EF0AF0E7EFB0
:1015C8000AF0F3EF0AF0CD0E0501B46FF60EB56F11
:1015D80071EC23F00601CA69CB6947EF0BF0000EE6
:1015E8000501D56F0A0ED46F000ED76F000ED66FA7
:1015F800000ED96F640ED86FE9ECB3F00501D45131
:10160800D511D8A40AEF0BF00CEF0BF00EEF0BF08E
:101618001FEF0BF0110E0601CD6F3C0ECC6FCB0EF9
:10162800E82EFED7CC2FFCD7CD2FFAD70601CE4B0C
:10163800CF2BD9EF0AF06C0E0601BE6F170EBF6FE5
:10164800730EC06FFF0EC16F010EC26FFCEC07F086
:101658000009D8B432EF0BF034EF0BF042EF0BF087
:10166800F50E0501B46FF20EB56F71EC23F0FF0EA5
:101678000601CB6FFE0ECA6F47EF0BF0000E060196
:10168800CB6F000ECA6F12000501F7510601F4195D
:1016980009E10501F8510601F519D8A456EF0BF038
:1016A80058EF0BF05AEF0BF0BAEF0BF0070135517A
:1016B8000501F75DF851800AF96F07013651800A74
:1016C8000501F959D8A06BEF0BF06DEF0BF07CEF2B
:1016D8000BF0450EB46FF10EB56FF7C5B6F5F8C54A
:1016E800B7F571EC23F0000E0601F76F010EF66FE7
:1016F8000701225123112411D8B485EF0BF087EF8D
:101708000BF09CEF0BF0F4C6F0F5F5C6F1F5F7C554
:10171800F2F5F8C5F3F502D89CEF0BF00500FA6E68
:101728002251FD6E2351FE6E2451FF6EFA501200B5
:10173800F7C5F4F6F8C5F5F60601F4510501F96F99
:101748000601F5510501FA6FFB6BFC6BFAC5FCF558
:10175800F9C5FBF5FA6BF96BF9C541F5FAC542F520
:10176800FBC543F5FCC544F5F4EC08F0120099C636
:10177800CCF59AC6CDF59D0E0501CE6F060ECF6F3E
:101788007CEC05F006019F6F9F51D8A4CEEF0BF0BB
:10179800D0EF0BF02CEF0CF09B519C11D8A4D7EF95
:1017A8000BF0D9EF0BF0EBEF0BF099C64EF69AC69B
:1017B8004FF6000E506F000E516F000E526F000E64
:1017C800536F43ECD1F006019F6F2CEF0CF099C6D4
:1017D8008CF69AC68DF6000E8F6F000E8E6F95EC04
:1017E800EDF006019F6F040E9F19D8A4FEEF0BF0D1
:1017F80000EF0CF002EF0CF0000E9F6F9F51D8A481
:1018080008EF0CF00AEF0CF02CEF0CF099C615F568
:101818009AC616F59BC617F59CC618F5BBECE4F0FE
:1018280099C672F69AC673F6000E0601756F000E19
:10183800746FD5ECC3F006019F6F040E9F19D8A4EE
:1018480028EF0CF02AEF0CF02CEF0CF0000E9F6F35
:101858009F51120098C6D9F499C6DAF4DEC49AF6F4
:10186800DDC49BF698C68CF699C68DF6000E060167
:101878008F6F010E8E6FA0ECFEF006019C6F9C51DD
:10188800D8A449EF0CF04BEF0CF09DEF0CF09AC682
:101898002AF69BC62BF620EE16F09851D9269951B8
:1018A800DA22DEC42CF6DEC42DF6DEC42EF6DEC443
:1018B8002FF6E7EC0DF006019C6F9C51D8A467EF5A
:1018C8000CF069EF0CF09DEF0CF020EE1AF0985137
:1018D800D9269951DA22DEC408F5DDC409F5000ECF
:1018E8000B6E000E0A6E000E0D6E200E0C6EA8EC2C
:1018F800F7F0060120EE1AF09851D9269951DA220C
:10190800DEC408F5DDC409F51C0E98250A6E000E24
:1019180099210B6E000E0D6E0B0E0C6EB3EC1FF0C2
:10192800060120EE04F09A51D9269B51DA22010EC5
:10193800DF6E9C5112000A6E5F0EF66EE40EF76EB3
:10194800000EF86E0900F5500A5CD8A0AEEF0CF056
:10195800B0EF0CF00AEF0DF0600EF66EE40EF76EC5
:10196800000EF86E0A500900F55CD8A0BEEF0CF026
:10197800C0EF0CF0C6EF0CF0000E096E010E086EF9
:101988000EEF0DF0610EF66EE40EF76E000EF86EB7
:101998000900F5500A5CD8A0D4EF0CF0D6EF0CF093
:1019A800E8EF0CF0620EF66EE40EF76E000EF86EBD
:1019B8000A500900F55CD8A0E4EF0CF0E6EF0CF053
:1019C800E8EF0CF0C0EF0CF0630EF66EE40EF76E65
:1019D800000EF86E0900F5500A5CD8A0F6EF0CF07E
:1019E800F8EF0CF00AEF0DF0640EF66EE40EF76EE9
:1019F800000EF86E0A500900F55CD8A006EF0DF04D
:101A080008EF0DF00AEF0DF0C0EF0CF0000E096EB4
:101A1800000E086E120008C50EF509C50FF520EE78
:101A280002F00E50D9260F50DA220D50010BDF6E4E
:101A380020EE03F00E50D9260F50DA220D50020B7B
:101A4800DF6E20EE04F00E50D9260F50DA220CC5B6
:101A5800DFF420EE06F00E50D9260F50DA220AC520
:101A6800DEF40BC5DDF40D50D8A43DEF0DF03FEFCB
:101A78000DF06AEF0DF00C04D8A445EF0DF047EF18
:101A88000DF06AEF0DF00A500B10D8A44EEF0DF0D0
:101A980050EF0DF06AEF0DF020EE08F00E50D92649
:101AA8000F50DA22FA0EDE6E0D0EDE6E000EDE6EBE
:101AB80020EE0BF00E50D9260F50DA229A0EDE6E69
:101AC800040EDE6E000EDE6E7CEF0DF020EE08F0E8
:101AD8000E50D9260F50DA22DE6ADE6ADD6A20EE61
:101AE8000BF00E50D9260F50DA22DE6ADE6ADD6A64
:101AF800120020EE02F03550D9263650DA22DE5098
:101B0800DE10D8B48AEF0DF08CEF0DF0E6EF0DF093
:101B18003750381039103A10D8A495EF0DF097EFD8
:101B28000DF099EF0DF0E6EF0DF020EE04F03550D2
:101B3800D9263650DA22DE50DE10D8B4A6EF0DF0E2
:101B4800A8EF0DF0C0EF0DF020EE0CF03550D926BF
:101B58003650DA2237503B143F6E10EE0CF03550F9
:101B6800E1263650E222E750406E3750FF0A401413
:101B78003F10DF6EE6EF0DF020EE0AF03550D92663
:101B88003650DA2237503B143F6E10EE0AF03550CB
:101B9800E1263650E222E750406E3750FF0A4014E3
:101BA8003F10DF6E35C52BF536C52CF50A0E2D6EA8
:101BB80020EE0AF03550D9263650DA22DF502E6E44
:101BC800C7EC1CF01200000E0501FF6F060120EEA5
:101BD8002CF02A51D9262B51DA222C51DE180FE18C
:101BE8002D51DE180CE12E51DE1809E12F51DE18B7
:101BF800D8B401EF0EF003EF0EF04EEF0EF02AC648
:101C080018F62BC619F605ECF0F00501FF6FFF5129
:101C1800D8A411EF0EF013EF0EF04EEF0EF0300EC9
:101C280006012A250F6F000E2B21106F2CC611F606
:101C38002DC612F62EC613F62FC614F6000E166F12
:101C4800010E156F20EE01F02A51D9262B51DA2208
:101C5800DF50F0ECF3F00009D8B435EF0EF037EFB1
:101C68000EF03FEF0EF006012C692D692E692F69E1
:101C7800010E0501FF6F060120EE2CF02A51D9262E
:101C88002B51DA222CC6DEF42DC6DEF42EC6DEF485
:101C98002FC6DEF40501FF51120052505310D8A48C
:101CA80058EF0EF05AEF0EF060EF0EF052C518F52F
:101CB80053C519F566EF0EF0FF0E5224186EFF0E8D
:101CC8005320196E58A06BEF0EF06DEF0EF076EF03
:101CD8000EF014C509F50A6A12C50BF513C50CF503
:101CE80057EC10F019BE7BEF0EF07DEF0EF07FEF92
:101CF8000EF083EF0EF0000E196E000E186E000E37
:101D0800176E000E166E95EF0EF0000E0A6E200E7E
:101D1800096E12C50BF513C50CF557EC10F0164AF1
:101D2800172A1850165C1750800A156E1950800A29
:101D38001558D8A0A2EF0EF0A4EF0EF089EF0EF020
:101D480058B0A9EF0EF0ABEF0EF0B4EF0EF014C5DB
:101D580009F50A6A12C50BF513C50CF557EC10F016
:101D6800010E1624126E000E1720136E12002E0E8E
:101D7800F66E450EF76E000EF86E02EEBEF110EE2E
:101D880030F00900F5C4EEF4E550E150FAE14E0EEA
:101D9800F66E3C0EF76E000EF86E02EE9AF010EE3C
:101DA80062F00900F5C4EEF4E550E150FAE1920E54
:101DB800F66E460EF76E000EF86E01EED7F310EED3
:101DC80028F00900F5C4EEF4E550E150FAE102EE1E
:101DD800A0F214EEFCF0EE6AE550E150FCE1E250AE
:101DE800FAE102EE00F2A00EEE6AE806FDE102EE6C
:101DF80000F1BE0EEE6AE806FDE102EE00F09A0E72
:101E0800EE6AE806FDE101EE00F3920EEE6AE806DE
:101E1800FDE101EEEAF2150EEE6AE806FDE101EEDB
:101E280052F1070EEE6AE806FDE10401080E5D6F47
:101E3800000E5E6F000E5F6F000114EFEBF008C537
:101E480010F509C511F50AC512F50BC513F534EFE0
:101E58000FF00C06D8A00D06104A112A124A132AB0
:101E68000C500D10D8B43BEF0FF03DEF0FF05CEFC6
:101E78000FF010C5D9F411C5DAF4DF500E6E12C593
:101E8800F6F413C5F7F4000EF86E3F0EF76403D0AE
:101E98000800F55005D0F6C4E9F4F7C4EAF4EF50A9
:101EA8000E18D8B45AEF0FF05CEF0FF02DEF0FF0CB
:101EB8000C500D10D8A463EF0FF065EF0FF06BEF27
:101EC8000FF0000E096E000E086E89EF0FF010C5B6
:101ED800D9F411C5DAF4DF500E6E12C5F6F413C545
:101EE800F7F4000EF86E3F0EF76403D00800F550C3
:101EF80005D0F6C4E9F4F7C4EAF4EF500F6E0F50BA
:101F08000E5C086E096AD8A009061200000E166E4B
:101F1800000E156E0EC5D9F40FC5DAF4DEC4F6F45A
:101F2800DDC4F7F4000EF86E0800F5502A0AD8A4AC
:101F3800A0EF0FF0A2EF0FF0D6EF0FF00EC5D9F417
:101F48000FC5DAF4DE2A000EDD2210C5D9F411C55A
:101F5800DAF4DFC412F5020EDE26DFC413F5000E34
:101F6800DD2212C5D9F413C5DAF4DEC415F5DDC4D3
:101F780016F5ECEF0FF015C508F516C509F5000EB6
:101F88000B6E0A0E0A6E85EC23F014500824156EA9
:101F9800000E0920166E0EC5D9F40FC5DAF4DE2A34
:101FA800000EDD220EC5D9F40FC5DAF4DEC4F6F44E
:101FB800DDC4F7F4000EF86E0800F550D00F146E6B
:101FC800090E1464EAEF0FF0ECEF0FF0BFEF0FF01B
:101FD80015C50EF516C50FF51200020E165E000E99
:101FE800175A185A195A20EE14F01450D9261550B9
:101FF800DA22FE0EDE241A6EFF0EDE201B6EFF0EA6
:10200800DE201C6EFF0EDE201D6E1A50165C1B5063
:1020180017581C5018581D501958D8A016EF10F012
:1020280018EF10F022EF10F0000E146E000E156E6F
:10203800000E166E000E176E56EF10F020EE28F008
:102048001450D9261550DA22DEC41AF5DEC41BF561
:10205800DEC41CF5DEC41DF520EE0AF01450D926A6
:102068001550DA22DEC41EF5DDC41FF51EC508F5BD
:102078001FC509F50A6A0B6A16C50CF517C50DF5D3
:1020880018C50EF519C50FF52BEC1CF01A500824CD
:10209800146E1B500920156E1C500A20166E1D5018
:1020A8000B20176E12000B500C10D8B45EEF10F016
:1020B80060EF10F069EF10F00B500C10D8A467EF28
:1020C80010F069EF10F06EEF10F009501CEC24F0DE
:1020D800BBEF10F020EE0AF00B50D9260C50DA2294
:1020E800DE50DE10D8B47BEF10F07DEF10F098EFE3
:1020F80010F020EE0AF00B50D9260C50DA2210EE20
:1021080003F00B50E1260C50E222DE50E65CE6506C
:10211800800A116EDE50800A1158D8B096EF10F080
:1021280098EF10F0BBEF10F020EE03F00B50D9261B
:102138000C50DA22DEC40DF5DDC40EF50BC5D9F45A
:102148000CC5DAF4DEC40FF5DDC410F50D500F240C
:10215800D96E0E501020DA6E09C5DFF420EE03F0B8
:102168000B50D9260C50DA22DE2A000EDD2212008E
:102178000AC513F50BC514F50C501324116E0D5038
:102188001420126E0EEF11F0085009C50EF50F6EEF
:102198000E50086E0FC509F513C5D9F414C5DAF445
:1021A800DF500E6E0E50081A134A142A08C50EF591
:1021B80009C50FF5040E106ED8900F320E32102E8E
:1021C800E0EF10F00F0E0E16000E0F160E50081A44
:1021D8000F50091A08C50EF509C50FF50C0ED89051
:1021E8000E360F36E82EF3EF10F00E50081A0F5087
:1021F800091AFF0E08140E6E000E09140F6E050E54
:10220800D8900E360F36E82E04EF11F00E50081A4B
:102218000F50091A1150135C12501458D8A017EF18
:1022280011F019EF11F0C8EF10F008C508F509C54D
:1022380009F5120058A023EF11F025EF11F02FEF48
:1022480011F01BC512F51CC513F519C514F51AC5EF
:1022580015F51FEC21F01EBE34EF11F036EF11F02A
:102268003CEF11F01DC522F51EC523F540EF11F016
:10227800000E236E000E226E000E216E000E206EE0
:1022880052EF11F0000E0A6E200E096E19C50BF5FB
:102298001AC50CF557EC10F0204A212A2250205C70
:1022A8002150800A1F6E2350800A1F58D8A05FEF64
:1022B80011F061EF11F046EF11F058B066EF11F030
:1022C80068EF11F072EF11F01BC512F51CC513F57C
:1022D80019C514F51AC515F51FEC21F01BC508F52D
:1022E8001CC509F5DBEC1FF022500824196E235099
:1022F80009201A6E12000501606F00C768F501C752
:1023080069F5050160514009616F47C562F546C529
:1023180063F545C564F544C565F5610E086E050E9F
:10232800096E000E0B6E050E0A6E70EC18F00109AE
:102338000501666F68C542F569C543F5BAEC23F037
:1023480068C512F569C513F5000E156E010E146EF9
:1023580088EC1EF068C508F569C509F5610E0A6EB6
:10236800050E0B6E000E0D6E060E0C6E84EC16F04C
:1023780004C715F505C716F5FF0EDAEC20F00501C0
:10238800676F48C5D9F449C5DAF467C5DFF467292A
:10239800D8A4D1EF11F0D3EF11F0D9EF11F0000E5E
:1023A800456E010E446EDDEF11F0000E456E000E15
:1023B800446E12000501D16F010E0501D26FF7EFCF
:1023C80011F0000ED26F18EF12F0860EB46FEE0EF9
:1023D800B56FD1C5B6F5B76BCCC5B8F5B96B71ECAF
:1023E80023F018EF12F0CC51CF6FD06BD051000A08
:1023F800D8B401EF12F0E9EF11F0CF51000AD8B4C8
:10240800E5EF11F0010AD8B4E9EF11F0030AD8B4E6
:10241800E9EF11F0010AD8B4E9EF11F0070AD8B4CE
:10242800E9EF11F0E9EF11F00601EE51EF11D8B420
:1024380020EF12F022EF12F038EF12F06D0E0501C6
:10244800B46FED0EB56FD1C5B6F5B76BCCC5B8F5A1
:10245800B96BCDC5BAF5CEC5BBF5BC6BBD6BD2C5E6
:10246800BEF5BF6B71EC23F00501D2511200CCC54B
:10247800D2F5CDC5D3F5050120EE04F0D251D92609
:10248800D351DA22CEC5DEF4CFC5DDF40001848352
:102498008481000E886F000E8B6F859986838681F4
:1024A8000501D005D8A45BEF12F05DEF12F061EFE3
:1024B80012F00001849563EF12F000018485050194
:1024C800D151D8A46AEF12F06CEF12F072EF12F04B
:1024D8000001859F858D859B81EF12F0FD0EB46FFD
:1024E800EF0EB56F230EB66FF00EB76FD1C5B8F506
:1024F800B96B71EC23F07FEF12F00501CE51CF11CB
:10250800D8A489EF12F08BEF12F092EF12F0000EC0
:1025180000018C6F050E896F97EF12F0020E000113
:102528008C6F020E896F12001CC529F51DC52AF58E
:1025380020EE0BF02950D9262A50DA22DE50DE1080
:10254800DE10D8B4AAEF12F0ACEF12F0CDEF12F013
:102558001CC508F51DC509F51EC50AF51FC50BF5EF
:1025680020C50CF521C50DF520EE0BF02950D92614
:102578002A50DA2202D8CBEF12F00500FA6EDE50AC
:10258800FD6EDE50FE6EDE50FF6EFA501200F3EF65
:1025980012F01EC525F51FC526F5000E286E000E83
:1025A800276EE8EF12F01CC50EF51DC50FF5FF0EDE
:1025B800106EB1ECE6F025C5D9F426C5DAF4DF6E65
:1025C800254A262A274A282A2050275C215028589D
:1025D800D8A0F1EF12F0F3EF12F0D7EF12F01200DB
:1025E80020EE03F00850D9260950DA22DF500C6E8D
:1025F8000C50116E126A136A146A20EE02F0085029
:10260800D9260950DA22DF500C6E0C5011C50EF590
:1026180012C50FF513C510F50D6A0D10116E0E5089
:10262800126E0F50136E1050146E20EE01F0085009
:10263800D9260950DA22DF500C6E0C5011C50EF560
:1026480012C50FF513C510F50D6A0D10116E0E5059
:10265800126E0F50136E1050146E08C5D9F409C5C8
:10266800DAF4DF500C6E0C5011C50EF512C50FF5DB
:1026780013C510F50D6A0D10116E0E50126E0F5025
:10268800136E1050146E11C508F512C509F513C55F
:102698000AF514C50BF512001CC529F51DC52AF548
:1026A80020EE08F02950D9262A50DA22DE50DE1012
:1026B800DE10D8B462EF13F064EF13F085EF13F077
:1026C8001CC508F51DC509F51EC50AF51FC50BF57E
:1026D80020C50CF521C50DF520EE08F02950D926A6
:1026E8002A50DA2202D883EF13F00500FA6EDE5082
:1026F800FD6EDE50FE6EDE50FF6EFA501200AAEF3D
:1027080013F01EC525F51FC526F5000E286E000E10
:10271800276E9FEF13F01CC50EF51DC50FF525C5D7
:10272800D9F426C5DAF4DF50106EB1ECE6F0254A8C
:10273800262A274A282A2050275C21502858D8A022
:10274800A8EF13F0AAEF13F08FEF13F012000701B0
:10275800EC29ED11D8B4B3EF13F0B5EF13F0B7EFE0
:1027680013F089EC1BF00501EE51F06FEF51F16F9A
:10277800F26BF36BF1C5F3F5F0C5F2F5F16BF06BA5
:102788000B0EF025D66F000EF121D76F000EF22147
:10279800D86F000EF321D96F800EDA6F090EDB6F48
:1027A800000EDD6F1F0EDC6FD5ECF9F00501EE5160
:1027B800F06FEF51F16FF26BF36BF1C5F3F5F0C504
:1027C800F2F5F16BF06B0B0EF025D66F000EF121D0
:1027D800D76F000EF221D86F000EF321D96F6A0E61
:1027E800DA6FEA0EDB6F000EDD6F1F0EDC6FEDECAB
:1027F800EBF0EEC5ECF7EFC5EDF712000701F22993
:10280800F311D8B40AEF14F00CEF14F00EEF14F033
:10281800BFEC1BF00501EE51F06FEF51F16FF26B59
:10282800F36BF1C5F3F5F0C5F2F5F16BF06B690EDA
:10283800F025D66F000EF121D76F000EF221D86F68
:10284800000EF321D96F9F0EDA6F090EDB6F000EB1
:10285800DD6F1F0EDC6FD5ECF9F00501EE51F06F5E
:10286800EF51F16FF26BF36BF1C5F3F5F0C5F2F5CB
:10287800F16BF06B690EF025D66F000EF121D76F62
:10288800000EF221D86F000EF321D96FD80EDA6F3F
:10289800E90EDB6F000EDD6F1F0EDC6FEDECEBF069
:1028A800EEC5F2F7EFC5F3F71200000E0814106E2C
:1028B800000E0914116E800E0A14126E7F0E0B148E
:1028C800136E1050111012101310D8A46EEF14F0DC
:1028D80070EF14F078EF14F0000E086E000E096E19
:1028E800000E0A6E000E0B6E000E0C14106E000E19
:1028F8000D14116E800E0E14126E7F0E0F14136ECF
:102908001050111012101310D8A48DEF14F08FEF7F
:1029180014F097EF14F0000E0C6E000E0D6E000E02
:102928000E6E000E0F6E0C5008180FE10D500918AE
:102938000CE10E500A1809E10F500B18D8B4A7EF94
:1029480014F0A9EF14F0ACEF14F0D890ADEF14F038
:10295800D8801200000E106E000E116E000E126E5E
:10296800000E136E0C500D100E100F10D8B4BFEFE0
:1029780014F0C1EF14F0F7EF14F0010E146ECBEF62
:1029880014F0D8900C360D360E360F36142A0FAECA
:10299800D0EF14F0D2EF14F0C5EF14F0D890103641
:1029A8001136123613360C50085C0D5009580E506B
:1029B8000A580F500B58D8A0E4EF14F0E6EF14F0C3
:1029C800EFEF14F00C50085E0D50095A0E500A5AD9
:1029D8000F500B5A1080D8900F320E320D320C3235
:1029E800142ED2EF14F010C508F511C509F512C55B
:1029F8000AF513C50BF51200080E0001B16F0401AA
:102A08002093C292CA922091C290CA90000E186F69
:102A1800000EC16E400EC96E2095C284CA94000E85
:102A2800086F000EBF6E000EC76E000E106F000E0E
:102A3800C06E000EC86E00973F0E0201046FC69666
:102A4800320E0401436F330E446F030E456F000EC0
:102A5800476F4691468B468F0095BE84C694009971
:102A6800BE88C698000E0201056F010ED56FA00E34
:102A7800D46FD189D18B0401009FC68E070E020145
:102A8800766F0401009DBE8CC69C260E0201076F5E
:102A9800D28F000E036F12006F0E356E070E366E62
:102AA800000E386E010E376E98ECE7F035C564F508
:102AB80036C565F56F0E356E070E366E000E386E2C
:102AC800050E376E000E3A6E010E396E47ECFFF0B8
:102AD8006F0E356E070E366E000E386E060E376EA8
:102AE800000E3A6E010E396E47ECFFF00601F45104
:102AF8000501606F0601F5510501616F626B636B3B
:102B080061C563F560C562F5616B606B60C541F5D1
:102B180061C542F562C543F563C544F5F4EC08F0B8
:102B28006F0E356E070E366E64C537F565C538F518
:102B380098ECE7F012000A6E5B0EF66EE40EF76E84
:102B4800000EF86E0900F5500A5CD8A0AEEF15F03B
:102B5800B0EF15F0E8EF15F05C0EF66EE40EF76EC8
:102B6800000EF86E0A500900F55CD8A0BEEF15F00B
:102B7800C0EF15F0C6EF15F0000E096E010E086ED5
:102B8800ECEF15F05D0EF66EE40EF76E000EF86EC3
:102B98000900F5500A5CD8A0D4EF15F0D6EF15F06F
:102BA800E8EF15F05E0EF66EE40EF76E000EF86EA6
:102BB8000A500900F55CD8A0E4EF15F0E6EF15F02F
:102BC800E8EF15F0C0EF15F0000E096E000E086E64
:102BD8001200000E126E000E116E0DC5D9F40EC54E
:102BE800DAF4DEC40FF5DDC410F50FC5D9F410C54D
:102BF800DAF4DF50136E200E1318D8B406EF16F06F
:102C080008EF16F02FEF16F02C0E1318D8B40FEFAC
:102C180016F011EF16F02FEF16F03D0E1318D8B47A
:102C280018EF16F01AEF16F02FEF16F01350D8A47D
:102C380020EF16F022EF16F024EF16F02FEF16F023
:102C4800114A122A0DC5D9F40EC5DAF4DE2A000E8F
:102C5800DD22F1EF15F00DC508F50EC509F539ECC3
:102C68001FF011C50DF512C50EF51200516E0701C2
:102C7800FE51D8B442EF16F044EF16F04FEF16F0BD
:102C8800AA0E5118D8B44BEF16F04DEF16F04FEFCF
:102C980016F083EF16F0AA0E5118D8A456EF16F0C6
:102CA80058EF16F05CEF16F0000EFE6F83EF16F08B
:102CB80051AC61EF16F063EF16F06FEF16F0100EDF
:102CC8000501B46FF30EB56F000EB76FA00EB66FA7
:102CD80071EC23F0FF0051AE74EF16F076EF16F0AA
:102CE80083EF16F05F0E0501B46FF30EB56F000E9B
:102CF800B76FA00EB66F71EC23F081EF16F01200DB
:102D08000AC510F50BC511F50C500D10D8A48FEF9E
:102D180016F091EF16F093EF16F0CDEF16F00D5078
:102D28000001836F0CC582F010C5D9F411C5DAF41F
:102D3800DF50816F104A112A000E0F6E010E0E6EC1
:102D4800B9EF16F010C5D9F411C5DAF4DF50816F68
:102D5800104A112AB1A0B3EF16F0B5EF16F0AEEF96
:102D680016F0000180510E4A0F2A0C500E5C0D50CF
:102D78000F58D8A0C2EF16F0C4EF16F0A6EF16F061
:102D8800B1A0C9EF16F0CBEF16F0C4EF16F00001B2
:102D9800805112000601F851D8B4D5EF16F0D7EFDC
:102DA80016F016EF17F0F2C5F4F5010E0501F56FF0
:102DB800000EF66FF42BE4EF16F0D890F537F637DF
:102DC800F42FE1EF16F0070131510501F51707015E
:102DD80032510501F617F551F611D8A4F6EF16F0A1
:102DE800F8EF16F016EF17F0F2C5EAF5F3C5EBF5B4
:102DF8004DEC20F0F2C5F4F5010E0501F56F000E5B
:102E0800F66FF42B0BEF17F0D890F537F637F42F51
:102E180008EF17F00501F551070131130501F651C7
:102E28000701321312000AC510F50BC511F50C5035
:102E38000D10D8A422EF17F024EF17F026EF17F0A3
:102E48005FEF17F00D500001836F0CC582F08169A8
:102E5800000E0F6E010E0E6E45EF17F0000181692E
:102E6800B1A039EF17F03BEF17F034EF17F010C5AA
:102E7800D9F411C5DAF480C0DFF4104A112A0E4AD9
:102E88000F2A0C500E5C0D500F58D8A04EEF17F0BB
:102E980050EF17F032EF17F0B1A055EF17F057EFDA
:102EA80017F050EF17F010C5D9F411C5DAF480C047
:102EB800DFF4104A112A1200D69E07013D513E1137
:102EC800D8B469EF17F06BEF17F08CEF17F0500ECE
:102ED8003B25D96E0A0E3C21DA6EDF500E6E010ECC
:102EE8003B25086E000E3C21096E000E0B6E500E3D
:102EF8000A6E91EC1DF008C53BF709C53CF70701C0
:102F08003D07D8A03E07A780D68E0E50A5EF17F034
:102F18000601F651F711D8B494EF17F096EF17F0B1
:102F28009AEF17F0D68E000EA5EF17F0D68E150E75
:102F38000D6EC60EE82EFED70D2EFCD700D060EF22
:102F480017F01200FE0E07015B250501F26FFF0E58
:102F580007015C210501F36F0601F4510501EE6FCD
:102F68000601F5510501EF6FF06BF16BEFC5F1F557
:102F7800EEC5F0F5EF6BEE6BF251EE25D66FF3511F
:102F8800EF21D76F000EF021D86F000EF121D96F15
:102F98006B0EDA6F070EDB6F000EDD6F020EDC6F53
:102FA800EDECEBF0BFEC1BF089EC1BF00701435193
:102FB8004411D8B4E2EF17F0E4EF17F0E9EF17F097
:102FC800000E0601F76F010EF66F12000C500D107F
:102FD8000E100F10D8B4F3EF17F0F5EF17F025EF38
:102FE80018F0010E106EFFEF17F0D8900C360D3662
:102FF8000E360F36102A0FAE04EF18F006EF18F051
:10300800F9EF17F00C50085C0D5009580E500A588B
:103018000F500B58D8A013EF18F015EF18F01DEF4C
:1030280018F00C50085E0D50095A0E500A5A0F50ED
:103038000B5AD8900F320E320D320C32102E06EF8A
:1030480018F008C508F509C509F50AC50AF50BC53C
:103058000BF51200E9C5CCF5EAC5CDF5EBC5CEF503
:10306800ECC5CFF5EDC5D0F5EEC5D1F588ECFAF095
:10307800000E0501F36FEBC5EFF5ECC5F0F5000E9A
:10308800F26F000EF16F53EF18F0EFC5D9F4F0C5E9
:10309800DAF4DF50F327EF4BF02BF14BF22BED5125
:1030A800F15DEE51F259D8A05CEF18F05EEF18F020
:1030B80049EF18F0280EB46FF40EB56FE9C5B6F5F0
:1030C800EAC5B7F5AB0EB86FF10EB96FF3C5BAF52F
:1030D800BB6B71EC23F01200000E106E08C511F5E1
:1030E80009C512F50A5011240C6E0B5012200D6EF2
:1030F800A5EF18F011C5D9F412C5DAF4DF50101A8B
:10310800114A122A000E0F6E000E0E6E10AE8FEFCF
:1031180018F091EF18F093EF18F0890E101AD89064
:1031280010360E4A0F2A0FBEA3EF18F00F5009E110
:10313800080E0E5CD8A0A3EF18F0A5EF18F08AEFE0
:1031480018F00C50115C0D501258D8A0AEEF18F0C2
:10315800B0EF18F07EEF18F010501200516E515079
:10316800D8B4B9EF18F0BBEF18F0CFEF18F006019C
:10317800EE51EF11D8B4C3EF18F0C5EF18F0CCEF4B
:1031880018F0880E0501B46FF40EB56F71EC23F0DA
:10319800020EF2EF18F00701DE290AE1DF2908E143
:1031A800E02906E1E129D8A4DCEF18F0DEEF18F0F9
:1031B800F1EF18F00601EE51EF11D8B4E6EF18F070
:1031C800E8EF18F0CCEF18F0E50E0501B46FF50E36
:1031D800B56F71EC23F0CCEF18F0000E12001A0E48
:1031E8001124086E000E1220096EDAEC21F008C5D1
:1031F80017F509C518F5196A1A6A0FC5D9F410C563
:10320800DAF4030EDE18D8A40CEF19F00EEF19F05B
:103218002AEF19F0140E1124086E000E1220096E00
:10322800DAEC21F00850136E0950146E156A166A0C
:1032380014C516F513C515F5146A136A1350171239
:10324800145018121550191216501A1217C50FF5E6
:1032580018C510F519C511F51AC512F5120010C5D3
:10326800F6F411C5F7F4000EF86E0800F5500C6E70
:103278000D6AF6EC21F00CC517F50DC518F5104AC6
:10328800112A12C5D9F413C5DAF4DF50146E14509C
:103298000C6E0D6AF6EC21F00CC515F50DC516F58A
:1032A800124A132A1550171807E116501818D8A4EF
:1032B80060EF19F062EF19F06BEF19F01750181062
:1032C800D8A469EF19F06BEF19F033EF19F0155026
:1032D800175C106E16501858116E12004A6E00C70F
:1032E8004BF501C74CF56EC54FF56FC550F56AC56E
:1032F80044F56BC545F56CC546F56DC547F54FC535
:1033080048F550C549F54A507FEC11F044C54DF5D4
:1033180045C54EF54D504E10D8B495EF19F097EFBE
:1033280019F09BEF19F034EC23F0B0EF19F04BC50E
:1033380008F54CC509F5010E4F240A6E000E502001
:103348000B6EFF0E050170250C6EFF0E71210D6EC0
:1033580017EC17F097EF19F012000601F851D8B4DE
:10336800B8EF19F0BAEF19F0E1EF19F0A30E050163
:10337800B46FF20EB56FEAC6B6F5EBC6B7F5ECC694
:10338800B8F5EDC6B9F571EC23F0EAC6D6F5EBC68B
:10339800D7F5ECC6D8F5EDC6D9F5FE0E0501DA6FFE
:1033A800060EDB6F000EDD6F010EDC6FEDECEBF04F
:1033B800000E0601F86FE8EF19F0580E0501B46F1A
:1033C800F40EB56F71EC23F0000E0601B16F000E1C
:1033D800B06F12000601F651F711D8A4F6EF19F0F4
:1033E800F8EF19F0FAEF19F029EF1AF0B5AAFFEF84
:1033F80019F001EF1AF003EF1AF029EF1AF0C29052
:103408006A0EE82EFED700D0B5AA0DEF1AF00FEF1E
:103418001AF012EF1AF0C28029EF1AF0000E060116
:10342800F76F000EF66F000E0501676F010E666FED
:1034380071EC20F032EC24F0000E0501676F000EED
:10344800666F71EC20F00FEF1AF01200000E060103
:10345800B76F000EB66F8A0E0501B46FFA0EB56F1E
:10346800B6C6B4F6B7C6B5F60601D890B437B537C0
:10347800D890B437B537D890B437B537F70EB425E8
:10348800F66EE90EB521F76EF86A000EF82209000B
:10349800F5C4B6F50A00F5C4B7F571EC23F00601DA
:1034A800B64BB72BB75109E10D0EB65DD8A05FEF4B
:1034B8001AF061EF1AF02FEF1AF0000EB16F000E3C
:1034C800B06F1200B2C6D9F4B3C6DAF4DE50DE101B
:1034D800D8B471EF1AF073EF1AF097EF1AF0B2C67A
:1034E800D9F4B3C6DAF4DEC4B4F6DDC4B5F6B4C6AE
:1034F800D9F4B5C6DAF4DF50D8B485EF1AF087EFFF
:103508001AF097EF1AF0B2C6D9F4B3C6DAF4DEC4EB
:1035180038F5DDC439F5EBECFBF038C543F739C5B0
:1035280044F79CEF1AF0000E0701446F010E436F39
:10353800000E0601B16F000EB06F1200A8EF1AF06E
:10354800084A092A0A4A0B2A08C5D9F409C5DAF42F
:10355800DF500C6E0AC5F6F40BC5F7F4000EF86ED2
:103568000800F5500C18D8A4BCEF1AF0BEEF1AF0FA
:10357800CAEF1AF008C5D9F409C5DAF4DF50D8A49F
:10358800C8EF1AF0CAEF1AF0A4EF1AF008C5D9F478
:1035980009C5DAF4DF500C6E0AC5F6F40BC5F7F46A
:1035A800000EF86E0800F5500C5C086E096AD8A089
:1035B800090612003EC540F53FC541F520EE02F070
:1035C8004050D9264150DA22DF6A000E0001846F8C
:1035D800000E856F110E02016A6F120E6B6F6F0E6F
:1035E800086E070E096E27EC24F008500910D8B4AD
:1035F80000EF1BF002EF1BF012EF1BF06F0E356EA1
:10360800070E366E000E386E000E376E000E3A6EDC
:10361800010E396E87EC00F015EF1BF004012095C0
:10362800CA940001848F12002EC5D9F42FC5DAF48C
:10363800DEC435F5DDC436F520EE08F02E50D92667
:103648002F50DA22DF50316ED89031344109326E72
:1036580030C533F535C50CF536C50DF5E4EC1EF06F
:1036680035C51CF536C51DF5320E1E6E050E1F6ECE
:10367800000E216E020E206E50EC13F035C52BF5AE
:1036880036C52CF598EC23F0346E35C50CF536C5E7
:103698000DF5C6EC22F034501200AEC5B2F5AFC538
:1036A800B3F5000E0701286F000E276F73EF1BF0AC
:1036B800ACC593F5ADC594F5B20E0501956F050E31
:1036C800966FB0C597F5B1C598F500EC80F0050187
:1036D8009351070127270501945107012823B2C5F3
:1036E800F6F4B3C5F7F4000EF86E0800F5500009BB
:1036F800D8A481EF1BF083EF1BF05CEF1BF0000EEA
:103708000501AD6F000EAC6F12000701EC29ED1139
:10371800D8A491EF1BF093EF1BF095EF1BF0BEEFD1
:103728001BF0EC510501EA6F0701ED510501EB6F44
:10373800EC6BED6BEBC5EDF5EAC5ECF5EB6BEA6B05
:103748000B0EEA25D66F000EEB21D76F000EEC2189
:10375800D86F000EED21D96F800EDA6F090EDB6F7E
:10376800000EDD6F1F0EDC6FEDECEBF0000E0701B5
:10377800ED6FEC6912000701F229F311D8A4C7EF25
:103788001BF0C9EF1BF0CBEF1BF0F4EF1BF0F2516D
:103798000501EA6F0701F3510501EB6FEC6BED6B67
:1037A800EBC5EDF5EAC5ECF5EB6BEA6B690EEA25BE
:1037B800D66F000EEB21D76F000EEC21D86F000EEC
:1037C800ED21D96F9F0EDA6F090EDB6F000EDD6FEA
:1037D8001F0EDC6FEDECEBF0000E0701F36FF269E2
:1037E800120008C5D9F409C5DAF40AC5DFF4084A95
:1037F800092A0BC50AF50CC50BF50DC50CF50D6AA4
:1038080008C5D9F409C5DAF40AC5DFF4084A092A53
:103818000BC50AF50CC50BF50DC50CF50D6A08C5E9
:10382800D9F409C5DAF40AC5DFF4084A092A0BC530
:103838000AF50CC50BF50DC50CF50D6A08C5D9F4CC
:1038480009C5DAF40AC5DFF4084A092A1200000E8D
:10385800106E000E116E000E126E000E136E08A090
:1038680038EF1CF03AEF1CF042EF1CF00C50102619
:103878000D5011220E5012220F501322D8900C36E0
:103888000D360E360F36D8900B320A32093208320E
:10389800085009100A100B10D8A455EF1CF057EF68
:1038A8001CF033EF1CF010C508F511C509F512C559
:1038B8000AF513C50BF512006F0E086E070E096E98
:1038C80027EC24F008500910D8B46DEF1CF06FEF06
:1038D8001CF088EF1CF06F0E356E070E366E000E6A
:1038E800386E000E376E40504110D8B47EEF1CF091
:1038F80081EF1CF0010E82EF1CF0000E396E3A6A5F
:1039080087EC00F093EF1CF040504110D8B48FEFD3
:103918001CF092EF1CF0C28493EF1CF0C2941200CA
:103928000BBEA3EF1CF00B500A10091006E10804A7
:10393800D8B0A1EF1CF0A3EF1CF0BEEF1CF008C537
:103948000CF509C50DF50AC50EF50BC50FF50C1ECE
:103958000D1E0E1E0F1E0C2A000E0D220E220F2207
:103968000CC508F50DC509F50EC50AF50FC50BF50B
:10397800C6EF1CF008C508F509C509F50AC50AF51A
:103988000BC50BF512002BC5D9F42CC5DAF4DEC42F
:1039980033F5DDC434F520EE08F02B50D9262C5031
:1039A800DA22DF502F6ED8902F344009306E2DC5A3
:1039B80031F52EC532F533C50CF534C50DF5E4ECFB
:1039C8001EF033C51CF534C51DF5300E1E6E050EF0
:1039D8001F6E000E216E030E206E50EC13F033C5DF
:1039E8000CF534C50DF5C6EC22F01200066ED69E15
:1039F80007013E5107E1500E3D5DD8B006EF1DF0BE
:103A080008EF1DF01FEF1DF03D513B25016E3E51A3
:103A18003C21026E000E046E500E036EF5EC1DF094
:103A2800500E0124D96E0A0E0220DA6E06C5DFF4A4
:103A380007013D4B3E2B3E5109E1400E3D5DD8A0AC
:103A480028EF1DF02AEF1DF02BEF1DF0A790D68E62
:103A580012000D6ED69E07013A5109E1500E395DEC
:103A6800D8A039EF1DF03BEF1DF044EF1DF0B7A2D1
:103A780040EF1DF042EF1DF03BEF1DF05FEC1DF035
:103A8800070139513725086E3A513821096E000E61
:103A98000B6E500E0A6E91EC1DF0000E0824D96EC4
:103AA8000A0E0920DA6E0DC5DFF40701394B3A2BEF
:103AB800A782D68E12007FEF1DF0000E3725D96E33
:103AC8000A0E3821DA6EDF500201C96F010E0701B4
:103AD8003725086E000E3821096E000E0B6E500E49
:103AE8000A6E91EC1DF008C537F709C538F70701CC
:103AF8003907D8A03A07070139513A11D8B487EFE6
:103B08001DF089EF1DF090EF1DF0B7B28EEF1DF09C
:103B180090EF1DF061EF1DF012000A500B10D8B4A1
:103B280098EF1DF09AEF1DF0BEEF1DF0010E0C6E20
:103B3800A2EF1DF0D8900A360B360C2A0BAEA7EF71
:103B48001DF0A9EF1DF09EEF1DF00A50085C0B5008
:103B58000958D8A0B2EF1DF0B4EF1DF0B8EF1DF072
:103B68000A50085E0B50095AD8900B320A320C2EB4
:103B7800A9EF1DF008C508F509C509F51200E3EF1E
:103B88001DF0000E3725D96E0A0E3821DA6EDF5087
:103B98000201C96F010E07013725016E000E382199
:103BA800026E000E046E500E036EF5EC1DF001C59A
:103BB80037F702C538F707013907D8A03A070701D0
:103BC80039513A11D8B4EBEF1DF0EDEF1DF0F4EFD9
:103BD8001DF0B7B2F2EF1DF0F4EF1DF0C5EF1DF0C8
:103BE800120003500410D8B4FCEF1DF0FEEF1DF0D6
:103BF80022EF1EF0010E056E06EF1EF0D890033678
:103C08000436052A04AE0BEF1EF00DEF1EF002EF8E
:103C18001EF00350015C04500258D8A016EF1EF0A5
:103C280018EF1EF01CEF1EF00350015E0450025AFC
:103C3800D89004320332052E0DEF1EF001C501F5B0
:103C480002C502F5120000FF060006A5065A06FF87
:103C58000A000AA50A5A0AFF0008040C020A060EFE
:103C68000109050D030B070F1A0000001A000000D8
:103C78001A0000001A000000000000000000000008
:103C8800000000000000000080000000800000002C
:103C9800800000008000000000000000000000001C
:103CA8000000000064400000010E146E200E0E108B
:103CB800106E000E0F10116E9F0E1024126EFF0E64
:103CC8001120136E135009E11A0E125CD8A06FEF81
:103CD8001EF071EF1EF084EF1EF0D00E0E24106E51
:103CE800FF0E0F20116E115009E10A0E105CD8A0CA
:103CF80080EF1EF082EF1EF084EF1EF0000E146EAF
:103D080014C50EF50F6A1200186812C508F513C518
:103D180009F50FEC1FF0000E176E000E166EA5EFDA
:103D28001EF012C508F513C509F5180E0A6E050E22
:103D38000B6E000E0D6E010E0C6E84EC16F0164A1A
:103D4800172A1450165C15501758D8A0AEEF1EF05D
:103D5800B0EF1EF095EF1EF012C508F513C509F572
:103D680041EC21F0120008C5F6F409C5F7F4000E7D
:103D7800F86E0800F5500A18D8A4C5EF1EF0C7EF72
:103D88001EF0CDEF1EF008C508F509C509F5E3EFEB
:103D98001EF008C5F6F409C5F7F4084A092A000E0A
:103DA800F86E0800F5500009D8A4DDEF1EF0DFEF2B
:103DB8001EF0B7EF1EF0000E086E000E096E12001E
:103DC8000CC50EF50DC50FF520EE05F00E50D926E1
:103DD8000F50DA22C8C4DFF4C896C898C88A20EE03
:103DE80003F00E50D9260F50DA22DF50D8A4FFEF87
:103DF8001EF002EF1FF0C08803EF1FF0C098C086C6
:103E08000CC508F50DC509F5000E0B6E010E0A6EFE
:103E180005EC24F0120008C50AF509C50BF520EEDB
:103E280002F00A50D9260B50DA22DF50D8A41FEF2F
:103E38001FF021EF1FF031EF1FF0310E0201126F5A
:103E4800320E116F20EE03F00A50D9260B50DA22F9
:103E5800C8C4DFF4C890C892C88420EE02F00A50A3
:103E6800D9260B50DA22DF2A12004CEF1FF008C5C2
:103E7800D9F409C5DAF4DFC40AF5010EDE26DFC479
:103E88000BF5000EDD220AC5D9F40BC5DAF4DF6A9A
:103E980008C5D9F409C5DAF4DEC40AF5DDC40BF5A2
:103EA8000AC5D9F40BC5DAF4200EDE18D8B45FEFD2
:103EB8001FF061EF1FF03BEF1FF01200B7A067EF94
:103EC8001FF069EF1FF07DEF1FF0C7C207F507501D
:103ED800D8B471EF1FF073EF1FF078EF1FF00750A1
:103EE800FAEC1CF07DEF1FF0000E0601F76F010ED3
:103EF800F66FC3EC1DF0070139513A11D8A487EFCA
:103F08001FF089EF1FF08AEF1FF0A7921100B80E7B
:103F18000501C86F050EC96FB4C5BCF5B5C5BDF5BB
:103F2800000EC06F000EBF6F000EC76F000EC66F89
:103F3800BC0EAC6F050EAD6FB6C5AEF5B7C5AFF527
:103F4800C80EB06F050EB16F51EC1BF00501BF51E3
:103F5800B425D96EC051B521DA6EDF6A12000AC5E0
:103F680011F50BC512F508C50FF509C510F5CDEF0C
:103F78001FF011C5D9F412C5DAF4DF500E6E114ADC
:103F8800122A0FC5D9F410C5DAF40EC5DFF40F4AAA
:103F9800102A0C06D8A00D060C2806E10D28D8A476
:103FA800D8EF1FF0DAEF1FF0BDEF1FF0120008C5C1
:103FB8000AF509C50BF5E3EF1FF0084A092A08C5F9
:103FC800F6F409C5F7F4000EF86E3F0EF76403D057
:103FD8000800F55005D0F6C4E9F4F7C4EAF4EF5048
:103FE8000009D8A4FAEF1FF0FCEF1FF0E1EF1FF073
:103FF8000A50085C086E0B500958096E12001A0E18
:104008000E24086E000E0F20096E10C50AF511C5A2
:104018000BF55DEC23F00CC5D9F40DC5DAF4030EED
:10402800DE18D8A41AEF20F01CEF20F028EF20F0BB
:10403800140E0E24086E000E0F20096E12C50AF524
:1040480013C50BF55DEC23F012000501EA51EC6F86
:10405800EB51ED6FEE6BEF6BEDC5EFF5ECC5EEF5E3
:10406800ED6BEC6B660EEC25D66F000EED21D76F6D
:10407800000EEE21D86F000EEF21D96FD50EDA6F42
:10408800E90EDB6F000EDD6F030EDC6FEDECEBF07D
:1040980012000501EA51EC6FEB51ED6FEE6BEF6B1F
:1040A800EDC5EFF5ECC5EEF5ED6BEC6B080EEC2508
:1040B800D66F000EED21D76F000EEE21D86F000EDF
:1040C800EF21D96F670EDA6FEA0EDB6F000EDD6F36
:1040D800030EDC6FEDECEBF0120005016651671181
:1040E800D8B479EF20F07BEF20F088EF20F0000EB5
:1040F8000201056F000E036FBE88BE84400EC96EB4
:10410800000EC76E93EF20F050EC15F07F0EC96ECD
:10411800C768C868010E0201056F020E036F12001E
:10412800010E0C6E200E08180910D8B49EEF20F06E
:10413800A0EF20F0B3EF20F0F70E08240A6EFF0E70
:1041480009200B6E0B5009E1050E0A5CD8A0AFEFF1
:1041580020F0B1EF20F0B3EF20F0000E0C6E0CC58C
:1041680008F5096A1200000E251A000E261A000E1C
:10417800271A800E281A21C508F522C509F523C576
:104188000AF524C50BF525C50CF526C50DF527C57B
:104198000EF528C50FF54EECB6F008C521F509C592
:1041A80022F50AC523F50BC524F51200176E00C7C2
:1041B80018F501C719F518C512F519C513F5A9ECB5
:1041C80023F01A6E17501A18D8A4EDEF20F0EFEF6D
:1041D80020F0FBEF20F01506D8A016061550161093
:1041E800D8A4F9EF20F0FBEF20F0DFEF20F01A5011
:1041F80012000AC50CF50BC50DF508C50EF509C565
:104208000FF50CC5F6F40DC5F7F40C4A0D2A000E8F
:10421800F86E0EC5D9F40FC5DAF40E4A0F2A080055
:10422800F5C4DFF4DF50D8A41CEF21F01EEF21F015
:1042380005EF21F01200000E186E000E176E30EF19
:1042480021F016C509F50A6A14C50BF515C50CF554
:1042580057EC10F0174A182A17501224D96E185024
:104268001320DA6EDF50166E1650D8A43EEF21F0F8
:1042780040EF21F025EF21F0120008C50AF509C525
:104288000BF520EE02F00A50D9260B50DA22DF0691
:10429800DF50D8A452EF21F054EF21F061EF21F064
:1042A800000E0201126F000E116F20EE03F00A508B
:1042B800D9260B50DA22DF50C86E120013BE6FEFFA
:1042C80021F0135006E11204D8B06DEF21F06FEF22
:1042D80021F07DEF21F012C514F513C515F5141E54
:1042E800151E144A152A14C512F515C513F581EFC4
:1042F80021F012C512F513C513F512008BEF21F04A
:1043080008C5D9F409C5DAF4DE2A000EDD2208C58D
:10431800D9F409C5DAF4DEC40AF5DDC40BF50AC51B
:10432800D9F40BC5DAF4200EDE18D8B49EEF21F0CC
:10433800A0EF21F084EF21F012000501CC51070114
:10434800355D3651800A516E0501CD51800A5158AC
:10435800D8B0B1EF21F0B3EF21F0BDEF21F0070E97
:10436800B46FEC0EB56FCCC5B6F5CDC5B7F571EC2D
:1043780023F01200D7C5CCF5D8C5CDF5D90E050167
:10438800CE6F050ECF6F7CEC05F00501DB6FDB51BE
:10439800D8A4D1EF21F0D3EF21F0D9EF21F0D7C580
:1043A800D9F4D8C5DAF4DE6ADD6A120020EE01F02D
:1043B8000850D9260950DA22DF500A6E0A500D6ECD
:1043C8000E6A08C5D9F409C5DAF4DF500A6E0D5033
:1043D8000B6E0A500D6E0BC50EF50DC508F50EC512
:1043E80009F512009F0E0C240E6EFF0E0D200F6EA5
:1043F8000F5007E11A0E0E5CD8B005EF22F007EF58
:1044080022F00DEF22F05F0E0C140C6E0D6A11EF06
:1044180022F00CC50CF50DC50DF51200200E081084
:104428000A6E000E09100B6E9F0E0A240C6EFF0E0A
:104438000B200D6E0D500AE11A0E0C5CD8A027EF68
:1044480022F02AEF22F0010E2BEF22F0000E086E68
:10445800096A1200085009100A100B10D8B437EF77
:1044680022F039EF22F041EF22F0000E081A000E78
:10447800091A000E0A1A800E0B1A08C508F509C594
:1044880009F50AC50AF50BC50BF512000D6E0D509E
:104498000F0B086E096ABE0E0824D96E090E092092
:1044A800DA6EDF500A6E0D380F0B0F0B0B6E0C6AAD
:1044B800CE0E0B24D96E090E0C20DA6EDF500A10CE
:1044C80012000501F451F511D8B46DEF22F06FEF29
:1044D80022F077EF22F0F4C6EEF5F5C6EFF502EC20
:1044E80014F07DEF22F0F4C6EEF5F5C6EFF5ABEC6F
:1044F80013F012008CEF22F0050E096E0F0E086EF5
:10450800F10EE82EFED7082EFCD7092EFAD700F0B8
:10451800070139513A11D8A494EF22F096EF22F00E
:1045280080EF22F01200008040C020A060E01090D0
:1045380050D030B070F00008040C020A060E0109D1
:10454800050D030B070F008040C020A060E010900D
:1045580050D030B070F008C50DF509C50EF50DC581
:10456800D9F40EC5DAF4DF500A6E20EE01F00D50D2
:10457800D9260E50DA22DF500B6E0A50086E0BC592
:1045880009F512000CC50EF50DC50FF50CC508F59B
:104598000DC509F5000E0B6E000E0A6E05EC24F031
:1045A80020EE05F00E50D9260F50DA22DF50C86EE3
:1045B8001200D00E08240A6EFF0E09200B6E0B5055
:1045C8000AE10A0E0A5CD8A0ECEF22F0EFEF22F025
:1045D800010EF0EF22F0000E086E096A12009F0E1D
:1045E80008240A6EFF0E09200B6E0B500AE11A0E02
:1045F8000A5CD8A002EF23F005EF23F0010E06EFC6
:1046080023F0000E086E096A1200BF0E08240A6E15
:10461800FF0E09200B6E0B500AE11A0E0A5CD8A097
:1046280018EF23F01BEF23F0010E1CEF23F0000E10
:10463800086E096A120008C50CF509C50DF50CC508
:10464800D9F40DC5DAF40AC5DFF40C4A0D2A0B506B
:104658000CC5D9F40DC5DAF4DF6E0C4A0D2A120028
:1046680000C744F501C745F544C542F545C543F5BE
:10467800CBEC23F044C512F545C513F5000E156EB5
:10468800010E146E88EC1EF01200286E756C6C29F1
:1046980000FFFFFFFF9408860878080D0078FFFFE9
:1046A800006AEA67EAFF00D8E9D5E901006F07CF99
:1046B80001FF08C5D9F409C5DAF40AC5DFF4084AC8
:1046C800092A0B500A6E0B6A08C5D9F409C5DAF431
:1046D8000AC5DFF4084A092A1200B60E0501CA6F96
:1046E800050ECB6F000EAC6F000EAD6FB4C5AEF506
:1046F800B5C5AFF5CA0EB06F050EB16F51EC1BF022
:10470800120008500A02F3C40CF5F4C40DF5085061
:104718000B02F3500D2609500A02F3500D260CC562
:1047280008F50DC509F512002D682BC51CF52CC51B
:104738001DF52D0E1E6E050E1F6E000E216E010E4C
:10474800206E98EC12F02D501200146812C508F56E
:1047580013C509F5140E0A6E050E0B6E000E0D6ECC
:10476800010E0C6E17EC17F01450120042C508F534
:1047780043C509F50FEC1FF042C53EF543C53FF5AB
:10478800000E416E010E406E60EC1CF0120042C536
:104798003EF543C53FF5000E416E000E406E60ECDD
:1047A8001CF042C508F543C509F541EC21F012009B
:1047B8006F0E356E070E366E000E386E040E376EAD
:1047C800000E3A6E000E396E87EC00F01200EEC64D
:1047D8000AF5EFC60BF508C5EEF609C5EFF60AC5EA
:1047E80008F50BC509F5120056C50AF557C50BF5AE
:1047F80008C556F509C557F50AC508F50BC509F5E5
:1048080012000A500B10D8B40CEF24F00FEF24F06C
:10481800C28410EF24F0C2941200B7A016EF24F05F
:1048280018EF24F011EF24F0C7C208F5096A120046
:10483800086EB7A222EF24F024EF24F01DEF24F035
:1048480008C5C9F2120020EE02F00850D926095016
:10485800DA22DEC408F5DDC409F51200F4C6EAF56B
:10486800F5C6EBF529EC20F0DCEC23F01200000E85
:10487800086E000E096E210E0A6E000E0B6E1200F5
:104888009C0E0701226F2D0E236F000E246F12005D
:10489800FF00000E0601B16F000EB06F1200000E8F
:1048A8000601B16F010EB06F120004012095C28499
:0A48B800CA9412000701FE5112001D
:10E4140000C2F88807007FF68907003EF68A0700E5
:10E424009AF58B07008FF68C0701E9F67C070087C5
:10E43400F57D07004DF57E0700E2F47F070067F7DE
:10E444008007001BF6810700ADF582070023F583E2
:10E45400070009F6840702819FE0FC407E80FC00EF
:10E46400002A00880010000000E6FF0201FFF70008
:10E474000267FB000326FD0004A2FE00059CFE01CA
:10E4840006F9F8000791FF00085CF90009E8F900B3
:10E494000A66F9000B1FFD000CC0FE000DBAFE0158
:10E4A4000E56FA000F96FF01106FFC021117F800C8
:10E4B40012C0F90013A4FD0014E4FE0015DEFE01F1
:10E4C4001604F90017D2FF011862FF001906FA00BA
:10E4D4001A70F9001B9DFD001C02FF001DFCFE01CB
:10E4E4001E60FA001FD6FF012016FB02212FF8023E
:10E4F4002259F7002329FE002420FF00251AFF01DA
:10E50400260FF90027CEFF012867FC002942FA02F2
:10E514002AF7F6002B22FE002C3EFF002D38FF01C7
:10E524002E6AFA002FE2FF01300DFB023147F80298
:10E53400328EF7003345FE0034CEFA0035C5FA01B9
:10E544003613F70037DEFF01385FFC00394CFA025E
:10E554003A81F7003B3EFE003C84FE003D7EFE0116
:10E564003EEEF8003FDAFF0040C4FC0041F5FC0039
:10E574004242FD004373FD0044C7FD0045F8FD0021
:10E584004684F9004793FC0048CBFC0049FCFC009E
:10E594004A49FD004B7AFD004CCEFD004DFFFD00C5
:10E5A4004E8EF9004F9AFC0050D2FC005103FD003E
:10E5B4005250FD005381FD0054D5FD005506FE0068
:10E5C4005698F90057A1FC0058D9FC00590AFD00DF
:10E5D4005A57FD005B88FD005CDCFD005D0DFE000C
:10E5E4005EA2F9005FA8FC0060E0FC006111FD0080
:10E5F400625EFD00638FFD0064E3FD006514FE00B0
:10E6040066ACF90067AFFC0068E7FC006918FD0020
:10E614006A65FD006B96FD006CEAFD006D1BFE0053
:10E624006EB6F9006FB6FC0070D4F90071DEF90023
:10E6340072F2F90073FCF9007410FA007538FA00EC
:10E6440076B9FF0077CAF90078BDFC0079EEFC00CA
:10E654007A3BFD007B6CFD007CC0FD007DF1FD007C
:10E664007E7AF9007F8CFC00807FFB008197FB00A1
:10E6740082B7FB0083CFFB0084F7FB00854FFC00CF
:10E6840086E3F800875FFB008877FB00898FFB0037
:10E694008AAFFB008BC7FB008CEFFB008D47FC00AF
:10E6A4008ED8F8008F57FB009096FE0091B4FE00C0
:10E6B40092D8FE0093F6FE009414FF009532FF00FA
:10E6C40096BCFA009778FE00986FFB009987FB00D0
:10E6D4009AA7FB009BBFFB009CE7FB009D3FFC004F
:10E6E4009ECDF8009F4FFB00A0A8FE00A1C6FE002F
:10E6F400A2EAFE00A308FF00A426FF00A544FF0031
:10E70400A6D7FA00A78AFE00A8AEFE00A9CCFE0098
:10E71400AAF0FE00AB0EFF00AC2CFF00AD4AFF00D8
:10E72400AEE0FA00AF90FE00B0AFFE00B1CDFE0047
:10E73400B2F1FE00B30FFF00B42DFF00B54BFF0094
:10E74400B6E1FA00B791FE00B89BFF00B9A0FF0044
:10E75400BAA5FF00BBAAFF00BCAFFF00BDB4FF0019
:10E76400BE3FFB00BF8CFF00C04CFE00C12DFD026C
:10E77400C253F802C3F2FA02C44BF700C59FFB016F
:10E78400C6F3F700C7FFFB00C85CFF00C9EAFF023D
:10E79400CA46F900CB000002CCC2F702CD1AF90137
:10E7A400CEE7F700CF1FFC00D034FD00D1ABFD0253
:10E7B400D20BF801D305F702D421F700D5D7FB011A
:10E7C400D61AFA00D707FC00D8D2FE00D9EEFF0211
:10E7D400DA25F901DB74F702DCB5F700DD0000018E
:10E7E400DEDBF700DF27FC00E037FE00E130FE024D
:10E7F400E23BF800E351F902E43DF700E557FC0180
:10E80400E624FA00E70FFC00E8B2FD00E947FB024A
:10E81400EA23F800EBFBFA02EC2FF700ED0000010D
:10E82400EE2EFA00EF2FFC00F056FF00F1B9FD02C6
:10E83400F23BF900F3F9FF02F4A8F700F5DFFB015E
:10E84400F62FFA00F717FC00F850FF00F904FB025A
:10E85400FA30F900FBFCFF02FC9BF700FD0000010D
:10E86400FEE9FA00FF37FCF0000000C3BB00000023
:10E874000000000000000000000000000000000094
:10E884000000000000000000000000000000000084
:10E894000000000000000000000000000000000074
:10E8A4000000000000000000000000000000000064
:10E8B4000000000000000000000000000000000054
:10E8C4000000000000000000000000000000000044
:10E8D4000000000000000000000000000000000034
:10E8E4000000000000000000000000424F4F543AB6
:10E8F400206572726F7220626F6F74696E670D0AA1
:10E904000043502F4D20626F6F742D6C6F616465EE
:10E914007220666F72205A38302D53696D756C61A0
:10E92400746F720D0A002196007ED30123B7C2BE14
:10E9340000010100210000AFD30A78D30B79D30C76
:10E944007DD30F7CD310AFD30DDB0EB7CA0000C646
:10E9540030D3013E0DD3013E0AD3012180007EB79E
:10E96400CAFE00D30123C3F300F3760000000000C5
:10E974000000000000000000000000000000000093
:10E984000000000000000000000000000000000083
:10E994000000000000000000000000000000000073
:10E9A4000000000000000000000000000000000063
:10E9B4000000000000000000000000000000000053
:10E9C4000000000000000000000000000000000043
:10E9D40000D3AB00ED739400319400F5C5D5E5DDAB
:10E9E400E5FDE5D3ACFDE1DDE1E1D1C1F1ED7B94E1
:10E9F40000ED45A4F601DAED0100009FF600623354
:10EA0400000000B3FA00A648000000CFF70222B8C5
:10EA1400010000F6FF0222B8010000AAFA048C7A71
:10EA240001000087FF0276BA0100006CFE009848DE
:10EA34000000007EFC02FAD00100006EFE028C4849
:10EA44000101007DFF01CC3400000085FC005AAEBA
:10EA540001000082FF0054340000000000000000A8
:10EA6400000000D3AD00ED733600313600F5C5D596
:10EA7400E5DDE5FDE5D3AEFDE1DDE1E1D1C1F1ED9B
:10EA84007B3600ED4D4449534B3A204F503D2530E1
:10EA9400327820442F542F533D25642F2533642F7F
:10EAA40025336420202020202020202020202041E5
:10EAB4004444523D2530327825303278202852455E
:10EAC40041442049474E4F524544290A0D004449C8
:10EAD400534B3A204F503D2530327820442F542F49
:10EAE400533D25642F2533642F2533642078253343
:10EAF400643D25356C6420414444523D25303278D0
:10EB040025303278202E2E2E2053543D2530327855
:10EB14000A0D004449534B3A204F503D253032787A
:10EB240020442F542F533D25642F2533642F253340
:10EB34006420202020202020202020202041444424
:10EB4400523D2530327825303278202849474E4FBF
:10EB5400524544290A0D004449534B3A204F503D35
:10EB64002530327820442F542F533D25642F2533EC
:10EB7400642F2533642020202020202020202020E2
:10EB840020414444523D2530327825303278202EBD
:10EB94002E2E200A0D00534420436172643A2072E1
:10EBA4006561643531323A20435243206572726F95
:10EBB4007220282530347820213D20253034782CCB
:10EBC4002072657472793D2564290A0D00574152FB
:10EBD4004E494E473A206E6F204750494F20657882
:10EBE40070616E64657220746F20636F6E74726FEF
:10EBF4006C20686967686572206164647265737308
:10EC04000A0D005741524E494E473A20746F6F2007
:10EC14006D616E792062616E6B73207265717565CA
:10EC2400737465642E202872657175657374206928
:10EC340073202564290A0D00496D616765206669A2
:10EC44006C652025732F445249564525632E445341
:10EC54004B2069732061737369676E656420746FF8
:10EC64002064726976652025630A0D0074797065E5
:10EC7400202768656C702720746F20736565207485
:10EC84006865206C697374206F6620617661696CB5
:10EC940061626C6520636F6D6D616E64730A0D0053
:10ECA4005741524E494E473A20756E6B6E6F776EE0
:10ECB40020492F4F2077726974652025642C202504
:10ECC40064202825303258482C20253032584829D1
:10ECD4000A0D00534420436172643A202072656136
:10ECE400643531323A20616464723D25386C642C99
:10ECF400206F6666733D25642C20636F756E743DCA
:10ED040025640A0D00534420436172643A207772EB
:10ED14006974653531323A20616464723D25386C1A
:10ED2400642C206F6666733D25642C20636F756EBA
:10ED3400743D25640A0D00534420436172643A20F3
:10ED440077726974653531323A206661696C65643D
:10ED540020746F2067657420746F6B656E2C20744B
:10ED6400696D656F75740A0D006469736B5F696F13
:10ED740063746C3A20706472763D25642C20636D54
:10ED8400643D25642C20627566663D3078256C7878
:10ED94003A207265733D25640A0D004449534B3A89
:10EDA40020207265616420442F542F533D25642F25
:10EDB4002533642F25336420782533643D25356C51
:10EDC400643A204552524F520A0D00534420436185
:10EDD40072643A2077726974653531323A20746905
:10EDE4006D656F75742C20726573706F6E7365201A
:10EDF400697320253032780A0D0053442043617230
:10EE0400643A20434D4435382C2052333D2530326A
:10EE14007820253032782025303278202530327819
:10EE240020253032780A0D00534420436172643A3D
:10EE340020434D44382C2052373D2530327820254C
:10EE44003032782025303278202530327820253031
:10EE540032780A0D004449534B3A202072656164AC
:10EE640020442F542F533D25642F2533642F2533FD
:10EE74006420782533643D25356C643A204F4B0A71
:10EE84000D006469736B5F696F63746C3A2070641E
:10EE940072763D25642C20636D643D25643A204ED2
:10EEA4006F742068616E646C65642E0A0D00646979
:10EEB400736B5F726561643A2020706472763D25DD
:10EEC400642C20736563746F723D256C642C20631D
:10EED4006F756E743D25640A0D006469736B5F770A
:10EEE400726974653A20706472763D25642C2073CF
:10EEF4006563746F723D256C642C20636F756E744A
:10EF04003D25640A0D00534420436172643A204352
:10EF140043532028436172642043617061636974C0
:10EF240079205374617475732920697320300A0D34
:10EF340000534420436172643A20777269746535E2
:10EF440031323A20435243206572726F7220287224
:10EF5400657472793D2564290A0D00534420436188
:10EF640072643A204361726420706F776572207511
:10EF740070207374617475732062697320697320DF
:10EF8400300A0D0072656164204D42522070617236
:10EF9400746974696F6E207461626C652061742099
:10EFA400736563746F7220300A0D0053442043610B
:10EFB40072643A2020726561643531323A20736597
:10EFC40063746F723D256C643A204552524F520A65
:10EFD4000D005741524E494E473A20756E6B6E6F85
:10EFE400776E20492F4F20726561642025642028A4
:10EFF4002530325848290A0D0025733A20455252CB
:10F004004F523A206D6F6465202564206973206E29
:10F014006F7420737570706F727465640A0D002EBE
:10F024002E2F6469736B696F2F2E2E2F6469736B97
:10F03400696F2F70696331386634377134335F73A5
:10F0440070692E6300534420436172643A20534430
:10F054004843206F722053445843206361726420F4
:10F0640064657465637465640A0D005344204361E8
:10F0740072643A20696E697469616C697A65202EDC
:10F084002E2E207375636365656465640A0D0053F1
:10F094004420436172643A20756E657870656374C8
:10F0A400656420726573706F6E73652025303278E5
:10F0B4000A0D0053757065724D455A38302B535004
:10F0C400492077697468204750494F2065787061FA
:10F0D4006E6465720A0D00534420436172643A20E1
:10F0E40020726561643531323A20736563746F72DE
:10F0F4003D256C643A204F4B0A0D00534420436174
:10F1040072643A2041434D44343120726573706F08
:10F114006E736520697320253032780A0D005344DC
:10F1240020436172643A2077726974653531323AEA
:10F1340020746F6B656E20697320253032780A0D58
:10F14400004552524F523A2062616E6B2025642072
:10F154006973206E6F7420617661696C61626C659D
:10F164002E0A0D00534420436172643A20434D44F7
:10F17400353920726573706F6E736520697320254D
:10F184003032780A0D004D656D6F72792030303061
:10F19400303030202D202530366C5848202564200E
:10F1A4004B42204F4B0D0A00706172746974696F91
:10F1B4006E20737461727473206174207365637458
:10F1C4006F7220256C640A0D00557365205241331B
:10F1D4002065787465726E616C20636C6F636B205C
:10F1E400666F72205A38300A0D00557365204E43FD
:10F1F4004F20252E3266204D487A20666F72205AA1
:10F20400383020636C6F636B0A0D00665F77726938
:10F21400746528293A204552524F52207265733D35
:10F2240025642C206E3D25640A0D00665F726561BD
:10F234006428293A204552524F52207265733D2565
:10F24400642C206E3D25640A0D006661696C65645A
:10F2540020746F20777269746520736563746F72AC
:10F2640020256C640A0D000A0D5344204361726426
:10F274003A20696E697469616C697A65202E2E2E54
:10F284000A0D006661696C656420746F20726561A3
:10F294006420736563746F7220256C640A0D0043E7
:10F2A4006C65617220627265616B706F696E742047
:10F2B4006174202530346C580A0D00534420436196
:10F2C40072643A2041434D4434312C2052313D255F
:10F2D4003032780A0D004661696C656420746F20D1
:10F2E4006F70656E20534420436172642E2E0A0DA4
:10F2F400004661696C656420746F206D6F756E746F
:10F3040020534420436172642E0A0D000A0D526595
:10F3140073657420627920494F20706F72742025C0
:10F32400303258480A0D006661696C656420746F58
:10F33400207265616420736563746F7220300A0DF6
:10F344000053657420627265616B706F696E74201E
:10F354006174202530346C580A0D000A0D48414C64
:10F364005420627920494F20706F72742025303206
:10F3740058480A0D00534420436172643A206E6F6A
:10F3840074207375706F70727465640A0D00534451
:10F3940020436172643A20434D44302C2052313D65
:10F3A400253032780A0D006469736B5F696E697485
:10F3B40069616C697A65282564292E2E2E0A0D0050
:10F3C4002020202020202020202020202020202039
:10F3D400202020202020200D007761697420666F92
:10F3E400722070726F6772616D6D6572202E2E2EA1
:10F3F4000D00496E76616C696420617267756D6594
:10F404006E743A20272573270A0D0053544154552E
:10F41400533A2025632563256325632563256325E6
:10F424006325630025732535337320434845434BD7
:10F4340053554D3A20253032780A0D00556E6B6EC7
:10F444006F776E207661726961626C65202725731F
:10F45400270A0D00427265616B706F696E742069D2
:10F4640073206E6F74207365740A0D004D656D6FA3
:10F47400727920303030303030202D202530366CF9
:10F4840058480D00706879736963616C206472690F
:10F4940076657220213D20300A0D00416D62696756
:10F4A400756F757320636F6D6D616E642025730ACB
:10F4B4000D00427265616B706F696E742069732010
:10F4C4002530346C580A0D00556E6B6E6F776E20C4
:10F4D400636F6D6D616E643A2025730A0D00646577
:10F4E4006275675F6661746469736B5F7665726287
:10F4F4006F736500665F6C7365656B28293A2045F8
:10F5040052524F522025640A0D006E6F204641541A
:10F51400333220706172746974696F6E0A0D00640D
:10F52400656275675F7364636172645F7665726256
:10F534006F736500665F73796E6328293A204552BC
:10F54400524F522025640A0D0064656275675F6638
:10F5540061746469736B5F777269746500534420E6
:10F56400436172643A2074696D656F75740A0D00A5
:10F574006E6F204D4252207369676E6174757265B7
:10F584000A0D0064656275675F6661746469736B14
:10F594005F726561640064656275675F6469736B5B
:10F5A4005F766572626F73650064656275675F7329
:10F5B40064636172645F777269746500696E766111
:10F5C4006C69642064726976652025640A0D0053B1
:10F5D4004420436172643A2072656164792E0A0D95
:10F5E400006E6F2076616C696420766F6C756D6552
:10F5F4000A0D0025732069732073656C6563746557
:10F60400642E0A0D007A38305F636C6F636B5F4E53
:10F61400434F31494E430064656275675F736463A9
:10F624006172645F72656164004D4D553A20626198
